{
  "contractName": "RomanUser",
  "abi": [
    {
      "inputs": [
        {
          "internalType": "address",
          "name": "",
          "type": "address"
        }
      ],
      "name": "allAdd",
      "outputs": [
        {
          "internalType": "uint256",
          "name": "",
          "type": "uint256"
        }
      ],
      "stateMutability": "view",
      "type": "function"
    },
    {
      "inputs": [
        {
          "internalType": "uint256",
          "name": "",
          "type": "uint256"
        }
      ],
      "name": "allUsers",
      "outputs": [
        {
          "internalType": "address",
          "name": "userId",
          "type": "address"
        },
        {
          "internalType": "uint256",
          "name": "nftId",
          "type": "uint256"
        },
        {
          "internalType": "uint8",
          "name": "behavior",
          "type": "uint8"
        }
      ],
      "stateMutability": "view",
      "type": "function"
    },
    {
      "inputs": [],
      "name": "allUsersCounter",
      "outputs": [
        {
          "internalType": "uint256",
          "name": "_value",
          "type": "uint256"
        }
      ],
      "stateMutability": "view",
      "type": "function"
    },
    {
      "inputs": [
        {
          "internalType": "address",
          "name": "",
          "type": "address"
        }
      ],
      "name": "userBeh",
      "outputs": [
        {
          "internalType": "uint8",
          "name": "",
          "type": "uint8"
        }
      ],
      "stateMutability": "view",
      "type": "function"
    },
    {
      "inputs": [
        {
          "internalType": "address",
          "name": "userId",
          "type": "address"
        },
        {
          "internalType": "uint256",
          "name": "nftId",
          "type": "uint256"
        }
      ],
      "name": "createUser",
      "outputs": [],
      "stateMutability": "nonpayable",
      "type": "function"
    },
    {
      "inputs": [
        {
          "internalType": "uint256",
          "name": "nftId",
          "type": "uint256"
        }
      ],
      "name": "removeUser",
      "outputs": [],
      "stateMutability": "nonpayable",
      "type": "function"
    },
    {
      "inputs": [],
      "name": "getAllUsers",
      "outputs": [
        {
          "components": [
            {
              "internalType": "address",
              "name": "userId",
              "type": "address"
            },
            {
              "internalType": "uint256",
              "name": "nftId",
              "type": "uint256"
            },
            {
              "internalType": "uint8",
              "name": "behavior",
              "type": "uint8"
            }
          ],
          "internalType": "struct RomanUser.User[]",
          "name": "",
          "type": "tuple[]"
        }
      ],
      "stateMutability": "view",
      "type": "function"
    },
    {
      "inputs": [
        {
          "internalType": "uint256",
          "name": "nftID",
          "type": "uint256"
        }
      ],
      "name": "getUser",
      "outputs": [
        {
          "components": [
            {
              "internalType": "address",
              "name": "userId",
              "type": "address"
            },
            {
              "internalType": "uint256",
              "name": "nftId",
              "type": "uint256"
            },
            {
              "internalType": "uint8",
              "name": "behavior",
              "type": "uint8"
            }
          ],
          "internalType": "struct RomanUser.User",
          "name": "",
          "type": "tuple"
        }
      ],
      "stateMutability": "view",
      "type": "function"
    },
    {
      "inputs": [
        {
          "internalType": "uint256",
          "name": "_from",
          "type": "uint256"
        },
        {
          "internalType": "uint256",
          "name": "_to",
          "type": "uint256"
        }
      ],
      "name": "blockUser",
      "outputs": [],
      "stateMutability": "nonpayable",
      "type": "function"
    },
    {
      "inputs": [
        {
          "internalType": "uint256",
          "name": "_from",
          "type": "uint256"
        },
        {
          "internalType": "uint256",
          "name": "_to",
          "type": "uint256"
        }
      ],
      "name": "unblockUser",
      "outputs": [],
      "stateMutability": "nonpayable",
      "type": "function"
    },
    {
      "inputs": [
        {
          "internalType": "address",
          "name": "add",
          "type": "address"
        }
      ],
      "name": "getTokenIdByAddress",
      "outputs": [
        {
          "internalType": "uint256",
          "name": "",
          "type": "uint256"
        }
      ],
      "stateMutability": "view",
      "type": "function"
    },
    {
      "inputs": [
        {
          "internalType": "address",
          "name": "add",
          "type": "address"
        }
      ],
      "name": "getBehavior",
      "outputs": [
        {
          "internalType": "uint8",
          "name": "",
          "type": "uint8"
        }
      ],
      "stateMutability": "view",
      "type": "function"
    }
  ],
  "bytecode": "0x608060405234801561001057600080fd5b506112a3806100206000396000f3fe608060405234801561001057600080fd5b50600436106100b45760003560e01c8063a2bdedf411610071578063a2bdedf41461018b578063a3d9e7e5146101bd578063a7ed6ad7146101ed578063acbb803814610209578063b0467deb14610239578063e2842d7914610269576100b4565b80630bdafcbc146100b957806311dc4703146100e957806317b660381461010557806366138f4b146101235780638cbab7e41461013f57806393dfc8eb1461016f575b600080fd5b6100d360048036038101906100ce9190610bcc565b610287565b6040516100e09190610c12565b60405180910390f35b61010360048036038101906100fe9190610c59565b61029f565b005b61010d61039d565b60405161011a9190610c12565b60405180910390f35b61013d60048036038101906101389190610c86565b6103a9565b005b61015960048036038101906101549190610bcc565b610595565b6040516101669190610c12565b60405180910390f35b61018960048036038101906101849190610cc6565b6105de565b005b6101a560048036038101906101a09190610c59565b610754565b6040516101b493929190610d31565b60405180910390f35b6101d760048036038101906101d29190610bcc565b6107ab565b6040516101e49190610d68565b60405180910390f35b61020760048036038101906102029190610c86565b6107cb565b005b610223600480360381019061021e9190610bcc565b6108bc565b6040516102309190610d68565b60405180910390f35b610253600480360381019061024e9190610c59565b610912565b6040516102609190610df2565b60405180910390f35b6102716109bb565b60405161027e9190610efe565b60405180910390f35b60016020528060005260406000206000915090505481565b60008082815260200190815260200160002060000160009054906101000a900473ffffffffffffffffffffffffffffffffffffffff1673ffffffffffffffffffffffffffffffffffffffff163373ffffffffffffffffffffffffffffffffffffffff1614610342576040517f08c379a000000000000000000000000000000000000000000000000000000000815260040161033990610fa3565b60405180910390fd5b600080828152602001908152602001600020600080820160006101000a81549073ffffffffffffffffffffffffffffffffffffffff021916905560018201600090556002820160006101000a81549060ff0219169055505050565b60038060000154905081565b3373ffffffffffffffffffffffffffffffffffffffff1660008084815260200190815260200160002060000160009054906101000a900473ffffffffffffffffffffffffffffffffffffffff1673ffffffffffffffffffffffffffffffffffffffff161461044c576040517f08c379a00000000000000000000000000000000000000000000000000000000081526004016104439061100f565b60405180910390fd5b600080600084815260200190815260200160002060010154036104a4576040517f08c379a000000000000000000000000000000000000000000000000000000000815260040161049b9061107b565b60405180910390fd5b3373ffffffffffffffffffffffffffffffffffffffff1660008083815260200190815260200160002060000160009054906101000a900473ffffffffffffffffffffffffffffffffffffffff1673ffffffffffffffffffffffffffffffffffffffff1603610547576040517f08c379a000000000000000000000000000000000000000000000000000000000815260040161053e9061110d565b60405180910390fd5b600160008083815260200190815260200160002060020160008282829054906101000a900460ff16610579919061115c565b92506101000a81548160ff021916908360ff1602179055505050565b6000600160008373ffffffffffffffffffffffffffffffffffffffff1673ffffffffffffffffffffffffffffffffffffffff168152602001908152602001600020549050919050565b600060405180606001604052808473ffffffffffffffffffffffffffffffffffffffff168152602001838152602001606460ff16815250905081600160008573ffffffffffffffffffffffffffffffffffffffff1673ffffffffffffffffffffffffffffffffffffffff168152602001908152602001600020819055506064600260008573ffffffffffffffffffffffffffffffffffffffff1673ffffffffffffffffffffffffffffffffffffffff16815260200190815260200160002060006101000a81548160ff021916908360ff160217905550806000806106c26003610b0b565b815260200190815260200160002060008201518160000160006101000a81548173ffffffffffffffffffffffffffffffffffffffff021916908373ffffffffffffffffffffffffffffffffffffffff1602179055506020820151816001015560408201518160020160006101000a81548160ff021916908360ff16021790555090505061074f6003610b19565b505050565b60006020528060005260406000206000915090508060000160009054906101000a900473ffffffffffffffffffffffffffffffffffffffff16908060010154908060020160009054906101000a900460ff16905083565b60026020528060005260406000206000915054906101000a900460ff1681565b3373ffffffffffffffffffffffffffffffffffffffff1660008084815260200190815260200160002060000160009054906101000a900473ffffffffffffffffffffffffffffffffffffffff1673ffffffffffffffffffffffffffffffffffffffff161461086e576040517f08c379a00000000000000000000000000000000000000000000000000000000081526004016108659061100f565b60405180910390fd5b600160008083815260200190815260200160002060020160008282829054906101000a900460ff166108a09190611190565b92506101000a81548160ff021916908360ff1602179055505050565b6000600260008373ffffffffffffffffffffffffffffffffffffffff1673ffffffffffffffffffffffffffffffffffffffff16815260200190815260200160002060009054906101000a900460ff169050919050565b61091a610b2f565b6000808381526020019081526020016000206040518060600160405290816000820160009054906101000a900473ffffffffffffffffffffffffffffffffffffffff1673ffffffffffffffffffffffffffffffffffffffff1673ffffffffffffffffffffffffffffffffffffffff168152602001600182015481526020016002820160009054906101000a900460ff1660ff1660ff16815250509050919050565b606060006109c96003610b0b565b67ffffffffffffffff8111156109e2576109e16111c7565b5b604051908082528060200260200182016040528015610a1b57816020015b610a08610b2f565b815260200190600190039081610a005790505b50905060005b610a2b6003610b0b565b811015610b035760008060008381526020019081526020016000206040518060600160405290816000820160009054906101000a900473ffffffffffffffffffffffffffffffffffffffff1673ffffffffffffffffffffffffffffffffffffffff1673ffffffffffffffffffffffffffffffffffffffff168152602001600182015481526020016002820160009054906101000a900460ff1660ff1660ff1681525050905080838381518110610ae457610ae36111f6565b5b6020026020010181905250508080610afb90611225565b915050610a21565b508091505090565b600081600001549050919050565b6001816000016000828254019250508190555050565b6040518060600160405280600073ffffffffffffffffffffffffffffffffffffffff16815260200160008152602001600060ff1681525090565b600080fd5b600073ffffffffffffffffffffffffffffffffffffffff82169050919050565b6000610b9982610b6e565b9050919050565b610ba981610b8e565b8114610bb457600080fd5b50565b600081359050610bc681610ba0565b92915050565b600060208284031215610be257610be1610b69565b5b6000610bf084828501610bb7565b91505092915050565b6000819050919050565b610c0c81610bf9565b82525050565b6000602082019050610c276000830184610c03565b92915050565b610c3681610bf9565b8114610c4157600080fd5b50565b600081359050610c5381610c2d565b92915050565b600060208284031215610c6f57610c6e610b69565b5b6000610c7d84828501610c44565b91505092915050565b60008060408385031215610c9d57610c9c610b69565b5b6000610cab85828601610c44565b9250506020610cbc85828601610c44565b9150509250929050565b60008060408385031215610cdd57610cdc610b69565b5b6000610ceb85828601610bb7565b9250506020610cfc85828601610c44565b9150509250929050565b610d0f81610b8e565b82525050565b600060ff82169050919050565b610d2b81610d15565b82525050565b6000606082019050610d466000830186610d06565b610d536020830185610c03565b610d606040830184610d22565b949350505050565b6000602082019050610d7d6000830184610d22565b92915050565b610d8c81610b8e565b82525050565b610d9b81610bf9565b82525050565b610daa81610d15565b82525050565b606082016000820151610dc66000850182610d83565b506020820151610dd96020850182610d92565b506040820151610dec6040850182610da1565b50505050565b6000606082019050610e076000830184610db0565b92915050565b600081519050919050565b600082825260208201905092915050565b6000819050602082019050919050565b606082016000820151610e4f6000850182610d83565b506020820151610e626020850182610d92565b506040820151610e756040850182610da1565b50505050565b6000610e878383610e39565b60608301905092915050565b6000602082019050919050565b6000610eab82610e0d565b610eb58185610e18565b9350610ec083610e29565b8060005b83811015610ef1578151610ed88882610e7b565b9750610ee383610e93565b925050600181019050610ec4565b5085935050505092915050565b60006020820190508181036000830152610f188184610ea0565b905092915050565b600082825260208201905092915050565b7f796f7520617265206e6f7420746865206f776e6572206f66207468697320746f60008201527f6b656e0000000000000000000000000000000000000000000000000000000000602082015250565b6000610f8d602383610f20565b9150610f9882610f31565b604082019050919050565b60006020820190508181036000830152610fbc81610f80565b9050919050565b7f73656e646572206973206e6f74206d73672e73656e6465720000000000000000600082015250565b6000610ff9601883610f20565b915061100482610fc3565b602082019050919050565b6000602082019050818103600083015261102881610fec565b9050919050565b7f4d696e74206120526f6d616e546f6b656e206669727374000000000000000000600082015250565b6000611065601783610f20565b91506110708261102f565b602082019050919050565b6000602082019050818103600083015261109481611058565b9050919050565b7f77687920796f752061726520626c6f636b696e6720796f757273656c662e2e2060008201527f21213f0000000000000000000000000000000000000000000000000000000000602082015250565b60006110f7602383610f20565b91506111028261109b565b604082019050919050565b60006020820190508181036000830152611126816110ea565b9050919050565b7f4e487b7100000000000000000000000000000000000000000000000000000000600052601160045260246000fd5b600061116782610d15565b915061117283610d15565b9250828210156111855761118461112d565b5b828203905092915050565b600061119b82610d15565b91506111a683610d15565b92508260ff038211156111bc576111bb61112d565b5b828201905092915050565b7f4e487b7100000000000000000000000000000000000000000000000000000000600052604160045260246000fd5b7f4e487b7100000000000000000000000000000000000000000000000000000000600052603260045260246000fd5b600061123082610bf9565b91507fffffffffffffffffffffffffffffffffffffffffffffffffffffffffffffffff82036112625761126161112d565b5b60018201905091905056fea264697066735822122028abd69a904ab527ff4fc8b5ec9e1f1d3de1d9218d8cc1348989ce59efa7110764736f6c634300080e0033",
  "immutableReferences": {},
  "source": "// SPDX-License-Identifier: MIT\npragma solidity ^0.8.14;\n\nimport \"@openzeppelin/contracts/utils/Counters.sol\";\n\ncontract RomanUser {\n\n    using Counters for Counters.Counter;\n    \n    // user structure\n    struct User {\n        address userId;\n        uint256 nftId;\n        uint8 behavior; // 100% for all users --> decrement by 1% for each time the user is blcoked \n    }\n\n    // mapping all users --> get address by tokenId\n    mapping(uint => User) public allUsers; // todo change var name to allTokens\n\n    //mapping users add by nftid\n    mapping (address => uint256) public allAdd;\n\n    // mapping behaviror by address\n    mapping (address => uint8) public userBeh;\n\n    // init counter\n    Counters.Counter public allUsersCounter; // todo increment by 1 so user1 --> nft1\n\n    // create a new user\n    function createUser(address userId, uint256 nftId) external {\n        User memory user = User({\n            userId: userId,\n            nftId: nftId,\n            behavior: 100\n        });\n\n        allAdd[userId] = nftId;\n        userBeh[userId] = 100;\n        allUsers[allUsersCounter.current()] = user;\n        allUsersCounter.increment();\n    }\n\n    //  delete user\n    function removeUser(uint256 nftId) external {\n        require(msg.sender == allUsers[nftId].userId, \"you are not the owner of this token\");\n        delete allUsers[nftId];\n    }\n\n    // get all users\n    function getAllUsers() public view returns (User[] memory) {\n      User[] memory data = new User[](allUsersCounter.current());\n      for (uint i = 0; i < allUsersCounter.current(); i++) {\n          User memory user = allUsers[i];\n          data[i] = user;\n      }\n      return data;\n    }\n\n    // get User by tokenId\n    function getUser(uint256 nftID) public view returns(User memory) {\n    return allUsers[nftID];\n    }\n\n\n    function blockUser(uint256 _from, uint256 _to) public {\n        require(allUsers[_from].userId == msg.sender, \"sender is not msg.sender\"); // **** TODO modifier\n        require(allUsers[_from].nftId != 0 , \"Mint a RomanToken first\");\n        require(allUsers[_to].userId != msg.sender, \"why you are blocking yourself.. !!?\" );\n        \n        // @DEV IMPORTANT SECURITY ISSUE ATTENTION underflow\n        allUsers[_to].behavior -= 1;     \n    }\n\n    function unblockUser(uint256 _from, uint256 _to) public {\n        // require from blocked to\n\n        // require from == msg.sender\n        require(allUsers[_from].userId == msg.sender, \"sender is not msg.sender\"); // **** TODO modifier\n\n        // overflow\n        allUsers[_to].behavior += 1;\n    }\n\n    // get nftid user by address\n    function getTokenIdByAddress(address add) external view returns(uint256) {\n                return allAdd[add];\n        }\n\n    // get user behavior\n    // @dev TODO return 0\n    function getBehavior(address add) external view returns(uint8) {\n        return userBeh[add];\n\n    }\n}",
  "sourcePath": "/home/gibo/RomaN-Labs/RomaN-smartContrat/contracts/polygon/RomanUser.sol",
  "compiler": {
    "name": "solc",
    "version": "0.8.14+commit.80d49f37.Emscripten.clang"
  },
  "schemaVersion": "3.4.7",
  "updatedAt": "2022-05-31T08:49:47.812Z",
  "devdoc": {
    "kind": "dev",
    "methods": {},
    "version": 1
  },
  "userdoc": {
    "kind": "user",
    "methods": {},
    "version": 1
  }
}