{
  "contractName": "RomanToken",
  "abi": [
    {
      "inputs": [],
      "stateMutability": "nonpayable",
      "type": "constructor"
    },
    {
      "anonymous": false,
      "inputs": [
        {
          "indexed": true,
          "internalType": "address",
          "name": "owner",
          "type": "address"
        },
        {
          "indexed": true,
          "internalType": "address",
          "name": "approved",
          "type": "address"
        },
        {
          "indexed": true,
          "internalType": "uint256",
          "name": "tokenId",
          "type": "uint256"
        }
      ],
      "name": "Approval",
      "type": "event"
    },
    {
      "anonymous": false,
      "inputs": [
        {
          "indexed": true,
          "internalType": "address",
          "name": "owner",
          "type": "address"
        },
        {
          "indexed": true,
          "internalType": "address",
          "name": "operator",
          "type": "address"
        },
        {
          "indexed": false,
          "internalType": "bool",
          "name": "approved",
          "type": "bool"
        }
      ],
      "name": "ApprovalForAll",
      "type": "event"
    },
    {
      "anonymous": false,
      "inputs": [
        {
          "indexed": true,
          "internalType": "address",
          "name": "from",
          "type": "address"
        },
        {
          "indexed": true,
          "internalType": "address",
          "name": "to",
          "type": "address"
        },
        {
          "indexed": true,
          "internalType": "uint256",
          "name": "tokenId",
          "type": "uint256"
        }
      ],
      "name": "Transfer",
      "type": "event"
    },
    {
      "inputs": [
        {
          "internalType": "address",
          "name": "to",
          "type": "address"
        },
        {
          "internalType": "uint256",
          "name": "tokenId",
          "type": "uint256"
        }
      ],
      "name": "approve",
      "outputs": [],
      "stateMutability": "nonpayable",
      "type": "function"
    },
    {
      "inputs": [
        {
          "internalType": "address",
          "name": "owner",
          "type": "address"
        }
      ],
      "name": "balanceOf",
      "outputs": [
        {
          "internalType": "uint256",
          "name": "",
          "type": "uint256"
        }
      ],
      "stateMutability": "view",
      "type": "function"
    },
    {
      "inputs": [
        {
          "internalType": "uint256",
          "name": "tokenId",
          "type": "uint256"
        }
      ],
      "name": "getApproved",
      "outputs": [
        {
          "internalType": "address",
          "name": "",
          "type": "address"
        }
      ],
      "stateMutability": "view",
      "type": "function"
    },
    {
      "inputs": [
        {
          "internalType": "address",
          "name": "owner",
          "type": "address"
        },
        {
          "internalType": "address",
          "name": "operator",
          "type": "address"
        }
      ],
      "name": "isApprovedForAll",
      "outputs": [
        {
          "internalType": "bool",
          "name": "",
          "type": "bool"
        }
      ],
      "stateMutability": "view",
      "type": "function"
    },
    {
      "inputs": [],
      "name": "name",
      "outputs": [
        {
          "internalType": "string",
          "name": "",
          "type": "string"
        }
      ],
      "stateMutability": "view",
      "type": "function"
    },
    {
      "inputs": [
        {
          "internalType": "uint256",
          "name": "tokenId",
          "type": "uint256"
        }
      ],
      "name": "ownerOf",
      "outputs": [
        {
          "internalType": "address",
          "name": "",
          "type": "address"
        }
      ],
      "stateMutability": "view",
      "type": "function"
    },
    {
      "inputs": [
        {
          "internalType": "address",
          "name": "operator",
          "type": "address"
        },
        {
          "internalType": "bool",
          "name": "approved",
          "type": "bool"
        }
      ],
      "name": "setApprovalForAll",
      "outputs": [],
      "stateMutability": "nonpayable",
      "type": "function"
    },
    {
      "inputs": [
        {
          "internalType": "bytes4",
          "name": "interfaceId",
          "type": "bytes4"
        }
      ],
      "name": "supportsInterface",
      "outputs": [
        {
          "internalType": "bool",
          "name": "",
          "type": "bool"
        }
      ],
      "stateMutability": "view",
      "type": "function"
    },
    {
      "inputs": [],
      "name": "symbol",
      "outputs": [
        {
          "internalType": "string",
          "name": "",
          "type": "string"
        }
      ],
      "stateMutability": "view",
      "type": "function"
    },
    {
      "inputs": [
        {
          "internalType": "address",
          "name": "from",
          "type": "address"
        },
        {
          "internalType": "address",
          "name": "to",
          "type": "address"
        },
        {
          "internalType": "uint256",
          "name": "tokenId",
          "type": "uint256"
        }
      ],
      "name": "safeTransferFrom",
      "outputs": [],
      "stateMutability": "nonpayable",
      "type": "function"
    },
    {
      "inputs": [
        {
          "internalType": "address",
          "name": "add",
          "type": "address"
        },
        {
          "internalType": "address",
          "name": "to",
          "type": "address"
        },
        {
          "internalType": "uint256",
          "name": "tokenId",
          "type": "uint256"
        },
        {
          "internalType": "bytes",
          "name": "data",
          "type": "bytes"
        }
      ],
      "name": "safeTransferFrom",
      "outputs": [],
      "stateMutability": "nonpayable",
      "type": "function"
    },
    {
      "inputs": [
        {
          "internalType": "address",
          "name": "add",
          "type": "address"
        },
        {
          "internalType": "address",
          "name": "to",
          "type": "address"
        },
        {
          "internalType": "uint256",
          "name": "tokenId",
          "type": "uint256"
        }
      ],
      "name": "transferFrom",
      "outputs": [],
      "stateMutability": "nonpayable",
      "type": "function"
    },
    {
      "inputs": [
        {
          "internalType": "address",
          "name": "add",
          "type": "address"
        }
      ],
      "name": "didMint",
      "outputs": [
        {
          "internalType": "bool",
          "name": "",
          "type": "bool"
        }
      ],
      "stateMutability": "view",
      "type": "function"
    },
    {
      "inputs": [
        {
          "internalType": "address",
          "name": "to",
          "type": "address"
        }
      ],
      "name": "safeMint",
      "outputs": [],
      "stateMutability": "nonpayable",
      "type": "function"
    },
    {
      "inputs": [
        {
          "internalType": "uint256",
          "name": "tokenId",
          "type": "uint256"
        }
      ],
      "name": "tokenURI",
      "outputs": [
        {
          "internalType": "string",
          "name": "",
          "type": "string"
        }
      ],
      "stateMutability": "view",
      "type": "function"
    },
    {
      "inputs": [
        {
          "internalType": "uint256",
          "name": "tokenId",
          "type": "uint256"
        },
        {
          "internalType": "string",
          "name": "_tokenURI",
          "type": "string"
        }
      ],
      "name": "setTokenURI",
      "outputs": [],
      "stateMutability": "nonpayable",
      "type": "function"
    },
    {
      "inputs": [
        {
          "internalType": "uint256",
          "name": "tokenId",
          "type": "uint256"
        }
      ],
      "name": "burn",
      "outputs": [],
      "stateMutability": "nonpayable",
      "type": "function"
    }
  ],
  "bytecode": "0x608060405273f104e44a7d2809e877847bfcf2b9051da89109e4600960006101000a81548173ffffffffffffffffffffffffffffffffffffffff021916908373ffffffffffffffffffffffffffffffffffffffff1602179055503480156200006657600080fd5b506040518060400160405280600a81526020017f526f6d616e546f6b656e000000000000000000000000000000000000000000008152506040518060400160405280600381526020017f524d4e00000000000000000000000000000000000000000000000000000000008152508160009080519060200190620000eb9291906200013a565b508060019080519060200190620001049291906200013a565b5050506200011e60086200012460201b62000de81760201c565b6200024e565b6001816000016000828254019250508190555050565b828054620001489062000219565b90600052602060002090601f0160209004810192826200016c5760008555620001b8565b82601f106200018757805160ff1916838001178555620001b8565b82800160010185558215620001b8579182015b82811115620001b75782518255916020019190600101906200019a565b5b509050620001c79190620001cb565b5090565b5b80821115620001e6576000816000905550600101620001cc565b5090565b7f4e487b7100000000000000000000000000000000000000000000000000000000600052602260045260246000fd5b600060028204905060018216806200023257607f821691505b602082108103620002485762000247620001ea565b5b50919050565b612daa806200025e6000396000f3fe608060405234801561001057600080fd5b506004361061010b5760003560e01c806342842e0e116100a257806395d89b411161007157806395d89b41146102c6578063a22cb465146102e4578063b88d4fde14610300578063c87b56dd1461031c578063e985e9c51461034c5761010b565b806342842e0e1461022e57806342966c681461024a5780636352211e1461026657806370a08231146102965761010b565b8063162094c4116100de578063162094c4146101aa57806323b872dd146101c65780633241e917146101e257806340d097c3146102125761010b565b806301ffc9a71461011057806306fdde0314610140578063081812fc1461015e578063095ea7b31461018e575b600080fd5b61012a60048036038101906101259190611bc3565b61037c565b6040516101379190611c0b565b60405180910390f35b61014861045e565b6040516101559190611cbf565b60405180910390f35b61017860048036038101906101739190611d17565b6104f0565b6040516101859190611d85565b60405180910390f35b6101a860048036038101906101a39190611dcc565b610575565b005b6101c460048036038101906101bf9190611f41565b61068c565b005b6101e060048036038101906101db9190611f9d565b610714565b005b6101fc60048036038101906101f79190611ff0565b61075d565b6040516102099190611c0b565b60405180910390f35b61022c60048036038101906102279190611ff0565b6107b3565b005b61024860048036038101906102439190611f9d565b610955565b005b610264600480360381019061025f9190611d17565b610975565b005b610280600480360381019061027b9190611d17565b610ae8565b60405161028d9190611d85565b60405180910390f35b6102b060048036038101906102ab9190611ff0565b610b99565b6040516102bd919061202c565b60405180910390f35b6102ce610c50565b6040516102db9190611cbf565b60405180910390f35b6102fe60048036038101906102f99190612073565b610ce2565b005b61031a60048036038101906103159190612154565b610cf8565b005b61033660048036038101906103319190611d17565b610d42565b6040516103439190611cbf565b60405180910390f35b610366600480360381019061036191906121d7565b610d54565b6040516103739190611c0b565b60405180910390f35b60007f80ac58cd000000000000000000000000000000000000000000000000000000007bffffffffffffffffffffffffffffffffffffffffffffffffffffffff1916827bffffffffffffffffffffffffffffffffffffffffffffffffffffffff1916148061044757507f5b5e139f000000000000000000000000000000000000000000000000000000007bffffffffffffffffffffffffffffffffffffffffffffffffffffffff1916827bffffffffffffffffffffffffffffffffffffffffffffffffffffffff1916145b80610457575061045682610dfe565b5b9050919050565b60606000805461046d90612246565b80601f016020809104026020016040519081016040528092919081815260200182805461049990612246565b80156104e65780601f106104bb576101008083540402835291602001916104e6565b820191906000526020600020905b8154815290600101906020018083116104c957829003601f168201915b5050505050905090565b60006104fb82610e68565b61053a576040517f08c379a0000000000000000000000000000000000000000000000000000000008152600401610531906122e9565b60405180910390fd5b6004600083815260200190815260200160002060009054906101000a900473ffffffffffffffffffffffffffffffffffffffff169050919050565b600061058082610ae8565b90508073ffffffffffffffffffffffffffffffffffffffff168373ffffffffffffffffffffffffffffffffffffffff16036105f0576040517f08c379a00000000000000000000000000000000000000000000000000000000081526004016105e79061237b565b60405180910390fd5b8073ffffffffffffffffffffffffffffffffffffffff1661060f610ed4565b73ffffffffffffffffffffffffffffffffffffffff16148061063e575061063d81610638610ed4565b610d54565b5b61067d576040517f08c379a00000000000000000000000000000000000000000000000000000000081526004016106749061240d565b60405180910390fd5b6106878383610edc565b505050565b33828173ffffffffffffffffffffffffffffffffffffffff166106ae82610ae8565b73ffffffffffffffffffffffffffffffffffffffff1614610704576040517f08c379a00000000000000000000000000000000000000000000000000000000081526004016106fb9061249f565b60405180910390fd5b61070e8484610f95565b50505050565b6001600011610758576040517f08c379a000000000000000000000000000000000000000000000000000000000815260040161074f9061250b565b60405180910390fd5b505050565b6000600760008373ffffffffffffffffffffffffffffffffffffffff1673ffffffffffffffffffffffffffffffffffffffff16815260200190815260200160002060009054906101000a900460ff169050919050565b8060001515600760008373ffffffffffffffffffffffffffffffffffffffff1673ffffffffffffffffffffffffffffffffffffffff16815260200190815260200160002060009054906101000a900460ff16151514610847576040517f08c379a000000000000000000000000000000000000000000000000000000000815260040161083e90612577565b60405180910390fd5b60006108536008611009565b905061085f6008610de8565b6001600760008573ffffffffffffffffffffffffffffffffffffffff1673ffffffffffffffffffffffffffffffffffffffff16815260200190815260200160002060006101000a81548160ff0219169083151502179055506108c18382611017565b600960009054906101000a900473ffffffffffffffffffffffffffffffffffffffff1673ffffffffffffffffffffffffffffffffffffffff166393dfc8eb84836040518363ffffffff1660e01b815260040161091e929190612597565b600060405180830381600087803b15801561093857600080fd5b505af115801561094c573d6000803e3d6000fd5b50505050505050565b61097083838360405180602001604052806000815250610cf8565b505050565b33818173ffffffffffffffffffffffffffffffffffffffff1661099782610ae8565b73ffffffffffffffffffffffffffffffffffffffff16146109ed576040517f08c379a00000000000000000000000000000000000000000000000000000000081526004016109e49061249f565b60405180910390fd5b6109f683611035565b600060076000610a0586610ae8565b73ffffffffffffffffffffffffffffffffffffffff1673ffffffffffffffffffffffffffffffffffffffff16815260200190815260200160002060006101000a81548160ff021916908315150217905550600960009054906101000a900473ffffffffffffffffffffffffffffffffffffffff1673ffffffffffffffffffffffffffffffffffffffff166311dc4703846040518263ffffffff1660e01b8152600401610ab1919061202c565b600060405180830381600087803b158015610acb57600080fd5b505af1158015610adf573d6000803e3d6000fd5b50505050505050565b6000806002600084815260200190815260200160002060009054906101000a900473ffffffffffffffffffffffffffffffffffffffff169050600073ffffffffffffffffffffffffffffffffffffffff168173ffffffffffffffffffffffffffffffffffffffff1603610b90576040517f08c379a0000000000000000000000000000000000000000000000000000000008152600401610b8790612632565b60405180910390fd5b80915050919050565b60008073ffffffffffffffffffffffffffffffffffffffff168273ffffffffffffffffffffffffffffffffffffffff1603610c09576040517f08c379a0000000000000000000000000000000000000000000000000000000008152600401610c00906126c4565b60405180910390fd5b600360008373ffffffffffffffffffffffffffffffffffffffff1673ffffffffffffffffffffffffffffffffffffffff168152602001908152602001600020549050919050565b606060018054610c5f90612246565b80601f0160208091040260200160405190810160405280929190818152602001828054610c8b90612246565b8015610cd85780601f10610cad57610100808354040283529160200191610cd8565b820191906000526020600020905b815481529060010190602001808311610cbb57829003601f168201915b5050505050905090565b610cf4610ced610ed4565b8383611041565b5050565b6001600011610d3c576040517f08c379a0000000000000000000000000000000000000000000000000000000008152600401610d339061250b565b60405180910390fd5b50505050565b6060610d4d826111ad565b9050919050565b6000600560008473ffffffffffffffffffffffffffffffffffffffff1673ffffffffffffffffffffffffffffffffffffffff16815260200190815260200160002060008373ffffffffffffffffffffffffffffffffffffffff1673ffffffffffffffffffffffffffffffffffffffff16815260200190815260200160002060009054906101000a900460ff16905092915050565b6001816000016000828254019250508190555050565b60007f01ffc9a7000000000000000000000000000000000000000000000000000000007bffffffffffffffffffffffffffffffffffffffffffffffffffffffff1916827bffffffffffffffffffffffffffffffffffffffffffffffffffffffff1916149050919050565b60008073ffffffffffffffffffffffffffffffffffffffff166002600084815260200190815260200160002060009054906101000a900473ffffffffffffffffffffffffffffffffffffffff1673ffffffffffffffffffffffffffffffffffffffff1614159050919050565b600033905090565b816004600083815260200190815260200160002060006101000a81548173ffffffffffffffffffffffffffffffffffffffff021916908373ffffffffffffffffffffffffffffffffffffffff160217905550808273ffffffffffffffffffffffffffffffffffffffff16610f4f83610ae8565b73ffffffffffffffffffffffffffffffffffffffff167f8c5be1e5ebec7d5bd14f71427d1e84f3dd0314c0f7b2291e5b200ac8c7c3b92560405160405180910390a45050565b610f9e82610e68565b610fdd576040517f08c379a0000000000000000000000000000000000000000000000000000000008152600401610fd490612756565b60405180910390fd5b80600660008481526020019081526020016000209080519060200190611004929190611a74565b505050565b600081600001549050919050565b6110318282604051806020016040528060008152506112fe565b5050565b61103e81611359565b50565b8173ffffffffffffffffffffffffffffffffffffffff168373ffffffffffffffffffffffffffffffffffffffff16036110af576040517f08c379a00000000000000000000000000000000000000000000000000000000081526004016110a6906127c2565b60405180910390fd5b80600560008573ffffffffffffffffffffffffffffffffffffffff1673ffffffffffffffffffffffffffffffffffffffff16815260200190815260200160002060008473ffffffffffffffffffffffffffffffffffffffff1673ffffffffffffffffffffffffffffffffffffffff16815260200190815260200160002060006101000a81548160ff0219169083151502179055508173ffffffffffffffffffffffffffffffffffffffff168373ffffffffffffffffffffffffffffffffffffffff167f17307eab39ab6107e8899845ad3d59bd9653f200f220920489ca2b5937696c31836040516111a09190611c0b565b60405180910390a3505050565b60606111b882610e68565b6111f7576040517f08c379a00000000000000000000000000000000000000000000000000000000081526004016111ee90612854565b60405180910390fd5b600060066000848152602001908152602001600020805461121790612246565b80601f016020809104026020016040519081016040528092919081815260200182805461124390612246565b80156112905780601f1061126557610100808354040283529160200191611290565b820191906000526020600020905b81548152906001019060200180831161127357829003601f168201915b5050505050905060006112a16113ac565b905060008151036112b65781925050506112f9565b6000825111156112eb5780826040516020016112d39291906128b0565b604051602081830303815290604052925050506112f9565b6112f4846113c3565b925050505b919050565b611308838361146a565b6113156000848484611643565b611354576040517f08c379a000000000000000000000000000000000000000000000000000000000815260040161134b90612946565b60405180910390fd5b505050565b611362816117ca565b600060066000838152602001908152602001600020805461138290612246565b9050146113a9576006600082815260200190815260200160002060006113a89190611afa565b5b50565b606060405180602001604052806000815250905090565b60606113ce82610e68565b61140d576040517f08c379a0000000000000000000000000000000000000000000000000000000008152600401611404906129d8565b60405180910390fd5b60006114176113ac565b905060008151116114375760405180602001604052806000815250611462565b80611441846118e7565b6040516020016114529291906128b0565b6040516020818303038152906040525b915050919050565b600073ffffffffffffffffffffffffffffffffffffffff168273ffffffffffffffffffffffffffffffffffffffff16036114d9576040517f08c379a00000000000000000000000000000000000000000000000000000000081526004016114d090612a44565b60405180910390fd5b6114e281610e68565b15611522576040517f08c379a000000000000000000000000000000000000000000000000000000000815260040161151990612ab0565b60405180910390fd5b61152e60008383611a47565b6001600360008473ffffffffffffffffffffffffffffffffffffffff1673ffffffffffffffffffffffffffffffffffffffff168152602001908152602001600020600082825461157e9190612aff565b92505081905550816002600083815260200190815260200160002060006101000a81548173ffffffffffffffffffffffffffffffffffffffff021916908373ffffffffffffffffffffffffffffffffffffffff160217905550808273ffffffffffffffffffffffffffffffffffffffff16600073ffffffffffffffffffffffffffffffffffffffff167fddf252ad1be2c89b69c2b068fc378daa952ba7f163c4a11628f55a4df523b3ef60405160405180910390a461163f60008383611a4c565b5050565b60006116648473ffffffffffffffffffffffffffffffffffffffff16611a51565b156117bd578373ffffffffffffffffffffffffffffffffffffffff1663150b7a0261168d610ed4565b8786866040518563ffffffff1660e01b81526004016116af9493929190612baa565b6020604051808303816000875af19250505080156116eb57506040513d601f19601f820116820180604052508101906116e89190612c0b565b60015b61176d573d806000811461171b576040519150601f19603f3d011682016040523d82523d6000602084013e611720565b606091505b506000815103611765576040517f08c379a000000000000000000000000000000000000000000000000000000000815260040161175c90612946565b60405180910390fd5b805181602001fd5b63150b7a0260e01b7bffffffffffffffffffffffffffffffffffffffffffffffffffffffff1916817bffffffffffffffffffffffffffffffffffffffffffffffffffffffff1916149150506117c2565b600190505b949350505050565b60006117d582610ae8565b90506117e381600084611a47565b6117ee600083610edc565b6001600360008373ffffffffffffffffffffffffffffffffffffffff1673ffffffffffffffffffffffffffffffffffffffff168152602001908152602001600020600082825461183e9190612c38565b925050819055506002600083815260200190815260200160002060006101000a81549073ffffffffffffffffffffffffffffffffffffffff021916905581600073ffffffffffffffffffffffffffffffffffffffff168273ffffffffffffffffffffffffffffffffffffffff167fddf252ad1be2c89b69c2b068fc378daa952ba7f163c4a11628f55a4df523b3ef60405160405180910390a46118e381600084611a4c565b5050565b60606000820361192e576040518060400160405280600181526020017f30000000000000000000000000000000000000000000000000000000000000008152509050611a42565b600082905060005b6000821461196057808061194990612c6c565b915050600a826119599190612ce3565b9150611936565b60008167ffffffffffffffff81111561197c5761197b611e16565b5b6040519080825280601f01601f1916602001820160405280156119ae5781602001600182028036833780820191505090505b5090505b60008514611a3b576001826119c79190612c38565b9150600a856119d69190612d14565b60306119e29190612aff565b60f81b8183815181106119f8576119f7612d45565b5b60200101907effffffffffffffffffffffffffffffffffffffffffffffffffffffffffffff1916908160001a905350600a85611a349190612ce3565b94506119b2565b8093505050505b919050565b505050565b505050565b6000808273ffffffffffffffffffffffffffffffffffffffff163b119050919050565b828054611a8090612246565b90600052602060002090601f016020900481019282611aa25760008555611ae9565b82601f10611abb57805160ff1916838001178555611ae9565b82800160010185558215611ae9579182015b82811115611ae8578251825591602001919060010190611acd565b5b509050611af69190611b3a565b5090565b508054611b0690612246565b6000825580601f10611b185750611b37565b601f016020900490600052602060002090810190611b369190611b3a565b5b50565b5b80821115611b53576000816000905550600101611b3b565b5090565b6000604051905090565b600080fd5b600080fd5b60007fffffffff0000000000000000000000000000000000000000000000000000000082169050919050565b611ba081611b6b565b8114611bab57600080fd5b50565b600081359050611bbd81611b97565b92915050565b600060208284031215611bd957611bd8611b61565b5b6000611be784828501611bae565b91505092915050565b60008115159050919050565b611c0581611bf0565b82525050565b6000602082019050611c206000830184611bfc565b92915050565b600081519050919050565b600082825260208201905092915050565b60005b83811015611c60578082015181840152602081019050611c45565b83811115611c6f576000848401525b50505050565b6000601f19601f8301169050919050565b6000611c9182611c26565b611c9b8185611c31565b9350611cab818560208601611c42565b611cb481611c75565b840191505092915050565b60006020820190508181036000830152611cd98184611c86565b905092915050565b6000819050919050565b611cf481611ce1565b8114611cff57600080fd5b50565b600081359050611d1181611ceb565b92915050565b600060208284031215611d2d57611d2c611b61565b5b6000611d3b84828501611d02565b91505092915050565b600073ffffffffffffffffffffffffffffffffffffffff82169050919050565b6000611d6f82611d44565b9050919050565b611d7f81611d64565b82525050565b6000602082019050611d9a6000830184611d76565b92915050565b611da981611d64565b8114611db457600080fd5b50565b600081359050611dc681611da0565b92915050565b60008060408385031215611de357611de2611b61565b5b6000611df185828601611db7565b9250506020611e0285828601611d02565b9150509250929050565b600080fd5b600080fd5b7f4e487b7100000000000000000000000000000000000000000000000000000000600052604160045260246000fd5b611e4e82611c75565b810181811067ffffffffffffffff82111715611e6d57611e6c611e16565b5b80604052505050565b6000611e80611b57565b9050611e8c8282611e45565b919050565b600067ffffffffffffffff821115611eac57611eab611e16565b5b611eb582611c75565b9050602081019050919050565b82818337600083830152505050565b6000611ee4611edf84611e91565b611e76565b905082815260208101848484011115611f0057611eff611e11565b5b611f0b848285611ec2565b509392505050565b600082601f830112611f2857611f27611e0c565b5b8135611f38848260208601611ed1565b91505092915050565b60008060408385031215611f5857611f57611b61565b5b6000611f6685828601611d02565b925050602083013567ffffffffffffffff811115611f8757611f86611b66565b5b611f9385828601611f13565b9150509250929050565b600080600060608486031215611fb657611fb5611b61565b5b6000611fc486828701611db7565b9350506020611fd586828701611db7565b9250506040611fe686828701611d02565b9150509250925092565b60006020828403121561200657612005611b61565b5b600061201484828501611db7565b91505092915050565b61202681611ce1565b82525050565b6000602082019050612041600083018461201d565b92915050565b61205081611bf0565b811461205b57600080fd5b50565b60008135905061206d81612047565b92915050565b6000806040838503121561208a57612089611b61565b5b600061209885828601611db7565b92505060206120a98582860161205e565b9150509250929050565b600067ffffffffffffffff8211156120ce576120cd611e16565b5b6120d782611c75565b9050602081019050919050565b60006120f76120f2846120b3565b611e76565b90508281526020810184848401111561211357612112611e11565b5b61211e848285611ec2565b509392505050565b600082601f83011261213b5761213a611e0c565b5b813561214b8482602086016120e4565b91505092915050565b6000806000806080858703121561216e5761216d611b61565b5b600061217c87828801611db7565b945050602061218d87828801611db7565b935050604061219e87828801611d02565b925050606085013567ffffffffffffffff8111156121bf576121be611b66565b5b6121cb87828801612126565b91505092959194509250565b600080604083850312156121ee576121ed611b61565b5b60006121fc85828601611db7565b925050602061220d85828601611db7565b9150509250929050565b7f4e487b7100000000000000000000000000000000000000000000000000000000600052602260045260246000fd5b6000600282049050600182168061225e57607f821691505b60208210810361227157612270612217565b5b50919050565b7f4552433732313a20617070726f76656420717565727920666f72206e6f6e657860008201527f697374656e7420746f6b656e0000000000000000000000000000000000000000602082015250565b60006122d3602c83611c31565b91506122de82612277565b604082019050919050565b60006020820190508181036000830152612302816122c6565b9050919050565b7f4552433732313a20617070726f76616c20746f2063757272656e74206f776e6560008201527f7200000000000000000000000000000000000000000000000000000000000000602082015250565b6000612365602183611c31565b915061237082612309565b604082019050919050565b6000602082019050818103600083015261239481612358565b9050919050565b7f4552433732313a20617070726f76652063616c6c6572206973206e6f74206f7760008201527f6e6572206e6f7220617070726f76656420666f7220616c6c0000000000000000602082015250565b60006123f7603883611c31565b91506124028261239b565b604082019050919050565b60006020820190508181036000830152612426816123ea565b9050919050565b7f4f6e6c7920746865206f776e65722063616e2063616c6c20746869732066756e60008201527f6374696f6e000000000000000000000000000000000000000000000000000000602082015250565b6000612489602583611c31565b91506124948261242d565b604082019050919050565b600060208201905081810360008301526124b88161247c565b9050919050565b7f746869732066756e6374696f6e20696e206e6f7420616c6c6f77656400000000600082015250565b60006124f5601c83611c31565b9150612500826124bf565b602082019050919050565b60006020820190508181036000830152612524816124e8565b9050919050565b7f4f6e6c79206f6e6520746f6b656e20697320616c6c6f77656400000000000000600082015250565b6000612561601983611c31565b915061256c8261252b565b602082019050919050565b6000602082019050818103600083015261259081612554565b9050919050565b60006040820190506125ac6000830185611d76565b6125b9602083018461201d565b9392505050565b7f4552433732313a206f776e657220717565727920666f72206e6f6e657869737460008201527f656e7420746f6b656e0000000000000000000000000000000000000000000000602082015250565b600061261c602983611c31565b9150612627826125c0565b604082019050919050565b6000602082019050818103600083015261264b8161260f565b9050919050565b7f4552433732313a2062616c616e636520717565727920666f7220746865207a6560008201527f726f206164647265737300000000000000000000000000000000000000000000602082015250565b60006126ae602a83611c31565b91506126b982612652565b604082019050919050565b600060208201905081810360008301526126dd816126a1565b9050919050565b7f45524337323155524953746f726167653a2055524920736574206f66206e6f6e60008201527f6578697374656e7420746f6b656e000000000000000000000000000000000000602082015250565b6000612740602e83611c31565b915061274b826126e4565b604082019050919050565b6000602082019050818103600083015261276f81612733565b9050919050565b7f4552433732313a20617070726f766520746f2063616c6c657200000000000000600082015250565b60006127ac601983611c31565b91506127b782612776565b602082019050919050565b600060208201905081810360008301526127db8161279f565b9050919050565b7f45524337323155524953746f726167653a2055524920717565727920666f722060008201527f6e6f6e6578697374656e7420746f6b656e000000000000000000000000000000602082015250565b600061283e603183611c31565b9150612849826127e2565b604082019050919050565b6000602082019050818103600083015261286d81612831565b9050919050565b600081905092915050565b600061288a82611c26565b6128948185612874565b93506128a4818560208601611c42565b80840191505092915050565b60006128bc828561287f565b91506128c8828461287f565b91508190509392505050565b7f4552433732313a207472616e7366657220746f206e6f6e20455243373231526560008201527f63656976657220696d706c656d656e7465720000000000000000000000000000602082015250565b6000612930603283611c31565b915061293b826128d4565b604082019050919050565b6000602082019050818103600083015261295f81612923565b9050919050565b7f4552433732314d657461646174613a2055524920717565727920666f72206e6f60008201527f6e6578697374656e7420746f6b656e0000000000000000000000000000000000602082015250565b60006129c2602f83611c31565b91506129cd82612966565b604082019050919050565b600060208201905081810360008301526129f1816129b5565b9050919050565b7f4552433732313a206d696e7420746f20746865207a65726f2061646472657373600082015250565b6000612a2e602083611c31565b9150612a39826129f8565b602082019050919050565b60006020820190508181036000830152612a5d81612a21565b9050919050565b7f4552433732313a20746f6b656e20616c7265616479206d696e74656400000000600082015250565b6000612a9a601c83611c31565b9150612aa582612a64565b602082019050919050565b60006020820190508181036000830152612ac981612a8d565b9050919050565b7f4e487b7100000000000000000000000000000000000000000000000000000000600052601160045260246000fd5b6000612b0a82611ce1565b9150612b1583611ce1565b9250827fffffffffffffffffffffffffffffffffffffffffffffffffffffffffffffffff03821115612b4a57612b49612ad0565b5b828201905092915050565b600081519050919050565b600082825260208201905092915050565b6000612b7c82612b55565b612b868185612b60565b9350612b96818560208601611c42565b612b9f81611c75565b840191505092915050565b6000608082019050612bbf6000830187611d76565b612bcc6020830186611d76565b612bd9604083018561201d565b8181036060830152612beb8184612b71565b905095945050505050565b600081519050612c0581611b97565b92915050565b600060208284031215612c2157612c20611b61565b5b6000612c2f84828501612bf6565b91505092915050565b6000612c4382611ce1565b9150612c4e83611ce1565b925082821015612c6157612c60612ad0565b5b828203905092915050565b6000612c7782611ce1565b91507fffffffffffffffffffffffffffffffffffffffffffffffffffffffffffffffff8203612ca957612ca8612ad0565b5b600182019050919050565b7f4e487b7100000000000000000000000000000000000000000000000000000000600052601260045260246000fd5b6000612cee82611ce1565b9150612cf983611ce1565b925082612d0957612d08612cb4565b5b828204905092915050565b6000612d1f82611ce1565b9150612d2a83611ce1565b925082612d3a57612d39612cb4565b5b828206905092915050565b7f4e487b7100000000000000000000000000000000000000000000000000000000600052603260045260246000fdfea2646970667358221220d60059dae7d549cce8fb9018dc7368a575f38cd5e9f3e10e187f2b0f1e2dae8564736f6c634300080e0033",
  "immutableReferences": {},
  "source": "// SPDX-License-Identifier: MIT\npragma solidity ^0.8.14;\n\nimport \"@openzeppelin/contracts/token/ERC721/ERC721.sol\";\nimport \"@openzeppelin/contracts/utils/Counters.sol\";\nimport \"@openzeppelin/contracts/token/ERC721/extensions/ERC721URIStorage.sol\";\n\nimport \"./RomanUser.sol\";\n\ncontract RomanToken is ERC721, ERC721URIStorage {\n    using Counters for Counters.Counter;\n    \n    // mapping users minted a token \n    mapping (address => bool) private _minted;\n\n    // counter\n    Counters.Counter private _tokenIdCounter;\n\n    // constructor\n    constructor() ERC721(\"RomanToken\", \"RMN\") {\n    // set counter to 1 ==> first minted token is 1\n        _tokenIdCounter.increment();\n    }\n\n    // init RomanUser contract\n    RomanUser _r = RomanUser(0xf104e44A7d2809E877847bfcF2b9051da89109E4);\n\n    // check if the sender minted a token\n    modifier onlyOnce(address _sender) {\n        require(_minted[_sender] == false, \"Only one token is allowed\");\n        // _minted[_sender] = true;\n        _;\n    }\n\n    // check if the sender is the owner of the token\n    modifier onlyTokenOwner(address _sender, uint256 _tokenId) {\n        require(ownerOf(_tokenId) == _sender, \"Only the owner can call this function\");\n        _;\n    }\n\n    // lock prohibited function\n    modifier impossible() {\n        require(0 > 1, \"this function in not allowed\");\n        _;\n    }\n\n   // prohibted function  --> override token transfer functions\n    function safeTransferFrom(address add, address to, uint256 tokenId, bytes memory data) public override impossible() {}\n    function transferFrom(address add, address to, uint256 tokenId) public override impossible() {}\n\n    // check if the address mint a token\n    function didMint(address add) external view returns (bool) {\n        return _minted[add];\n    }\n\n    // mint a token\n    function safeMint(address to) public onlyOnce(to) {\n        uint256 tokenId = _tokenIdCounter.current();\n        _tokenIdCounter.increment();\n        _minted[to] = true;\n        _safeMint(to, tokenId);\n        _r.createUser(to, tokenId);\n    }\n\n    // The following functions are overrides required by Solidity.\n    function _burn(uint256 tokenId) internal override(ERC721, ERC721URIStorage) {\n        super._burn(tokenId);\n    }\n\n    // get token uri by tokenId\n    function tokenURI(uint256 tokenId)\n        public\n        view\n        override(ERC721, ERC721URIStorage)\n        returns (string memory)\n    {\n        return super.tokenURI(tokenId);\n    }\n\n    // set token uri by tokenId\n    function setTokenURI(uint256 tokenId, string memory _tokenURI) public onlyTokenOwner(msg.sender, tokenId) {\n        _setTokenURI(tokenId,_tokenURI);\n    }\n\n    // burn token by tokenId\n    // @dev ATTENTION tokenId and address are set to 0\n    function burn(uint256 tokenId) public onlyTokenOwner(msg.sender, tokenId) {\n        _burn(tokenId);\n        _minted[ownerOf(tokenId)] = false;\n        _r.removeUser(tokenId);\n    }\n\n}",
  "sourcePath": "/home/gibo/RomaN-Labs/RomaN-smartContrat/contracts/polygon/RomanToken.sol",
  "compiler": {
    "name": "solc",
    "version": "0.8.14+commit.80d49f37.Emscripten.clang"
  },
  "schemaVersion": "3.4.7",
  "updatedAt": "2022-05-31T08:49:47.802Z",
  "devdoc": {
    "kind": "dev",
    "methods": {
      "approve(address,uint256)": {
        "details": "See {IERC721-approve}."
      },
      "balanceOf(address)": {
        "details": "See {IERC721-balanceOf}."
      },
      "getApproved(uint256)": {
        "details": "See {IERC721-getApproved}."
      },
      "isApprovedForAll(address,address)": {
        "details": "See {IERC721-isApprovedForAll}."
      },
      "name()": {
        "details": "See {IERC721Metadata-name}."
      },
      "ownerOf(uint256)": {
        "details": "See {IERC721-ownerOf}."
      },
      "safeTransferFrom(address,address,uint256)": {
        "details": "See {IERC721-safeTransferFrom}."
      },
      "setApprovalForAll(address,bool)": {
        "details": "See {IERC721-setApprovalForAll}."
      },
      "supportsInterface(bytes4)": {
        "details": "See {IERC165-supportsInterface}."
      },
      "symbol()": {
        "details": "See {IERC721Metadata-symbol}."
      }
    },
    "version": 1
  },
  "userdoc": {
    "kind": "user",
    "methods": {},
    "version": 1
  }
}