{
  "contractName": "RomanVault",
  "abi": [
    {
      "inputs": [
        {
          "internalType": "address",
          "name": "",
          "type": "address"
        }
      ],
      "name": "balances",
      "outputs": [
        {
          "internalType": "uint256",
          "name": "",
          "type": "uint256"
        }
      ],
      "stateMutability": "view",
      "type": "function"
    },
    {
      "inputs": [],
      "name": "totalSupply",
      "outputs": [
        {
          "internalType": "uint256",
          "name": "",
          "type": "uint256"
        }
      ],
      "stateMutability": "view",
      "type": "function"
    },
    {
      "inputs": [],
      "name": "deposit",
      "outputs": [],
      "stateMutability": "payable",
      "type": "function"
    },
    {
      "inputs": [
        {
          "internalType": "uint256",
          "name": "_amount",
          "type": "uint256"
        }
      ],
      "name": "withdraw",
      "outputs": [],
      "stateMutability": "payable",
      "type": "function"
    },
    {
      "inputs": [
        {
          "internalType": "address",
          "name": "to",
          "type": "address"
        },
        {
          "internalType": "uint256",
          "name": "amount",
          "type": "uint256"
        }
      ],
      "name": "transfer",
      "outputs": [],
      "stateMutability": "nonpayable",
      "type": "function"
    },
    {
      "inputs": [
        {
          "internalType": "address",
          "name": "user",
          "type": "address"
        }
      ],
      "name": "getBehavior",
      "outputs": [
        {
          "internalType": "uint8",
          "name": "",
          "type": "uint8"
        }
      ],
      "stateMutability": "view",
      "type": "function"
    }
  ],
  "bytecode": "0x608060405273f104e44a7d2809e877847bfcf2b9051da89109e4600260006101000a81548173ffffffffffffffffffffffffffffffffffffffff021916908373ffffffffffffffffffffffffffffffffffffffff16021790555073f4217bc232dde826bf8172bdb7b5cdd21e2dddaf600360006101000a81548173ffffffffffffffffffffffffffffffffffffffff021916908373ffffffffffffffffffffffffffffffffffffffff1602179055503480156100ba57600080fd5b50610d0e806100ca6000396000f3fe6080604052600436106100555760003560e01c806318160ddd1461005a57806327e235e3146100855780632e1a7d4d146100c2578063a9059cbb146100de578063acbb803814610107578063d0e30db014610144575b600080fd5b34801561006657600080fd5b5061006f61014e565b60405161007c9190610819565b60405180910390f35b34801561009157600080fd5b506100ac60048036038101906100a79190610897565b610154565b6040516100b99190610819565b60405180910390f35b6100dc60048036038101906100d791906108f0565b61016c565b005b3480156100ea57600080fd5b506101056004803603810190610100919061091d565b610270565b005b34801561011357600080fd5b5061012e60048036038101906101299190610897565b610586565b60405161013b9190610979565b60405180910390f35b61014c61062b565b005b60005481565b60016020528060005260406000206000915090505481565b80600160003373ffffffffffffffffffffffffffffffffffffffff1673ffffffffffffffffffffffffffffffffffffffff1681526020019081526020016000205410156101b857600080fd5b80600160003373ffffffffffffffffffffffffffffffffffffffff1673ffffffffffffffffffffffffffffffffffffffff168152602001908152602001600020600082825461020791906109c3565b925050819055508060008082825461021f91906109c3565b925050819055503373ffffffffffffffffffffffffffffffffffffffff166108fc829081150290604051600060405180830381858888f1935050505015801561026c573d6000803e3d6000fd5b5050565b3360011515600360009054906101000a900473ffffffffffffffffffffffffffffffffffffffff1673ffffffffffffffffffffffffffffffffffffffff16633241e917836040518263ffffffff1660e01b81526004016102d09190610a06565b602060405180830381865afa1580156102ed573d6000803e3d6000fd5b505050506040513d601f19601f820116820180604052508101906103119190610a59565b151514610353576040517f08c379a000000000000000000000000000000000000000000000000000000000815260040161034a90610ae3565b60405180910390fd5b8260011515600360009054906101000a900473ffffffffffffffffffffffffffffffffffffffff1673ffffffffffffffffffffffffffffffffffffffff16633241e917836040518263ffffffff1660e01b81526004016103b39190610a06565b602060405180830381865afa1580156103d0573d6000803e3d6000fd5b505050506040513d601f19601f820116820180604052508101906103f49190610a59565b151514610436576040517f08c379a000000000000000000000000000000000000000000000000000000000815260040161042d90610ae3565b60405180910390fd5b82600160003373ffffffffffffffffffffffffffffffffffffffff1673ffffffffffffffffffffffffffffffffffffffff16815260200190815260200160002054101561048257600080fd5b600061048e85856107c3565b905083600160003373ffffffffffffffffffffffffffffffffffffffff1673ffffffffffffffffffffffffffffffffffffffff16815260200190815260200160002060008282546104df91906109c3565b925050819055508084600160008873ffffffffffffffffffffffffffffffffffffffff1673ffffffffffffffffffffffffffffffffffffffff168152602001908152602001600020546105329190610b03565b61053c91906109c3565b600160008773ffffffffffffffffffffffffffffffffffffffff1673ffffffffffffffffffffffffffffffffffffffff168152602001908152602001600020819055505050505050565b6000600260009054906101000a900473ffffffffffffffffffffffffffffffffffffffff1673ffffffffffffffffffffffffffffffffffffffff1663acbb8038836040518263ffffffff1660e01b81526004016105e39190610a06565b602060405180830381865afa158015610600573d6000803e3d6000fd5b505050506040513d601f19601f820116820180604052508101906106249190610b85565b9050919050565b3360011515600360009054906101000a900473ffffffffffffffffffffffffffffffffffffffff1673ffffffffffffffffffffffffffffffffffffffff16633241e917836040518263ffffffff1660e01b815260040161068b9190610a06565b602060405180830381865afa1580156106a8573d6000803e3d6000fd5b505050506040513d601f19601f820116820180604052508101906106cc9190610a59565b15151461070e576040517f08c379a000000000000000000000000000000000000000000000000000000000815260040161070590610ae3565b60405180910390fd5b6001341015610752576040517f08c379a000000000000000000000000000000000000000000000000000000000815260040161074990610bfe565b60405180910390fd5b34600160003373ffffffffffffffffffffffffffffffffffffffff1673ffffffffffffffffffffffffffffffffffffffff16815260200190815260200160002060008282546107a19190610b03565b92505081905550346000808282546107b99190610b03565b9250508190555050565b6000806107cf84610586565b905060648160ff16846107e29190610c1e565b6107ec9190610ca7565b836107f791906109c3565b91505092915050565b6000819050919050565b61081381610800565b82525050565b600060208201905061082e600083018461080a565b92915050565b600080fd5b600073ffffffffffffffffffffffffffffffffffffffff82169050919050565b600061086482610839565b9050919050565b61087481610859565b811461087f57600080fd5b50565b6000813590506108918161086b565b92915050565b6000602082840312156108ad576108ac610834565b5b60006108bb84828501610882565b91505092915050565b6108cd81610800565b81146108d857600080fd5b50565b6000813590506108ea816108c4565b92915050565b60006020828403121561090657610905610834565b5b6000610914848285016108db565b91505092915050565b6000806040838503121561093457610933610834565b5b600061094285828601610882565b9250506020610953858286016108db565b9150509250929050565b600060ff82169050919050565b6109738161095d565b82525050565b600060208201905061098e600083018461096a565b92915050565b7f4e487b7100000000000000000000000000000000000000000000000000000000600052601160045260246000fd5b60006109ce82610800565b91506109d983610800565b9250828210156109ec576109eb610994565b5b828203905092915050565b610a0081610859565b82525050565b6000602082019050610a1b60008301846109f7565b92915050565b60008115159050919050565b610a3681610a21565b8114610a4157600080fd5b50565b600081519050610a5381610a2d565b92915050565b600060208284031215610a6f57610a6e610834565b5b6000610a7d84828501610a44565b91505092915050565b600082825260208201905092915050565b7f4d696e74206120526f6d614e546f6b656e206669727374000000000000000000600082015250565b6000610acd601783610a86565b9150610ad882610a97565b602082019050919050565b60006020820190508181036000830152610afc81610ac0565b9050919050565b6000610b0e82610800565b9150610b1983610800565b9250827fffffffffffffffffffffffffffffffffffffffffffffffffffffffffffffffff03821115610b4e57610b4d610994565b5b828201905092915050565b610b628161095d565b8114610b6d57600080fd5b50565b600081519050610b7f81610b59565b92915050565b600060208284031215610b9b57610b9a610834565b5b6000610ba984828501610b70565b91505092915050565b7f6465706f736974206d7573742062652067726561746572207468616e20310000600082015250565b6000610be8601e83610a86565b9150610bf382610bb2565b602082019050919050565b60006020820190508181036000830152610c1781610bdb565b9050919050565b6000610c2982610800565b9150610c3483610800565b9250817fffffffffffffffffffffffffffffffffffffffffffffffffffffffffffffffff0483118215151615610c6d57610c6c610994565b5b828202905092915050565b7f4e487b7100000000000000000000000000000000000000000000000000000000600052601260045260246000fd5b6000610cb282610800565b9150610cbd83610800565b925082610ccd57610ccc610c78565b5b82820490509291505056fea26469706673582212208fb8295ad73afeef08a324c7c5c20e7d616f6a5bd200218587708e25f37751c664736f6c634300080e0033",
  "immutableReferences": {},
  "source": "// SPDX-License-Identifier: MIT\npragma solidity ^0.8.14;\n\nimport \"./RomanUser.sol\";\nimport \"./RomanToken.sol\";\n\ncontract RomanVault {\n\n    uint public totalSupply;\n\n    mapping(address => uint) public balances;\n\n    // init RomanUser and RomanToken contracts\n    RomanUser _ru = RomanUser(0xf104e44A7d2809E877847bfcF2b9051da89109E4);\n    RomanToken _rt = RomanToken(0xF4217Bc232DDE826Bf8172BDB7b5CdD21e2dddaF);\n\n    // @dev TODO can use balanceOf function from ERC721 contract\n    modifier rDidMint(address add) {\n        require(_rt.didMint(add) == true, \"Mint a RomaNToken first\");\n        _;\n    }\n\n    // deposit function\n    function deposit() public payable rDidMint(msg.sender) {\n        require(msg.value >= 1, \"deposit must be greater than 1\");\t\n        balances[msg.sender] += msg.value;\n        totalSupply += msg.value;\n    }\n\n    // withdraw function\n    function withdraw(uint _amount) public payable {\n        require(balances[msg.sender] >= _amount);\n        balances[msg.sender] -= _amount;\n        totalSupply -= _amount;\n        payable(msg.sender).transfer(_amount);\n    }\n\n    // transfer function\n    // @dev TODO charges go to dev\n    function transfer(address to, uint amount) public rDidMint(msg.sender) rDidMint(to) {\n        require(balances[msg.sender] >= amount);\n        uint256 charges = calculateCharge(to, amount);\n        \n        balances[msg.sender] -= amount;\n        balances[to] = balances[to] + amount - charges;\n    }\n\n\n    // get user behavior\n    function getBehavior(address user) public view returns (uint8) {\n        return _ru.getBehavior(user);\n    }\n\n    // calculate charges for user depending on the behavior\n    // @dev TODO add the amount list for each interaction example(view profile=10, message=8, comment=5, like=3,....)\n    // @dev TODO add dev commission paymentSplitter\n    function calculateCharge(address user, uint256 amount) internal view returns(uint256) {\n        uint8 behavior = getBehavior(user);\n        return amount - (amount * behavior / 100);\n\n    }\n}",
  "sourcePath": "/home/gibo/RomaN-Labs/RomaN-smartContrat/contracts/polygon/RomanVault.sol",
  "compiler": {
    "name": "solc",
    "version": "0.8.14+commit.80d49f37.Emscripten.clang"
  },
  "schemaVersion": "3.4.7",
  "updatedAt": "2022-05-31T08:49:47.818Z",
  "devdoc": {
    "kind": "dev",
    "methods": {},
    "version": 1
  },
  "userdoc": {
    "kind": "user",
    "methods": {},
    "version": 1
  }
}